:020000040800F2
:10000000F83800209D010008DD400008AB360008EC
:10001000753F0008D7080008757700080000000049
:1000200000000000000000000000000005010008C2
:10003000010B00080000000049010008BD4700084E
:10004000B7010008B7010008B7010008B7010008B0
:10005000B7010008B7010008B7010008B7010008A0
:10006000B7010008B7010008B7010008B701000890
:10007000B7010008B7010008B7010008B701000880
:10008000B7010008B7010008B7010008B701000870
:10009000BD760008B7010008B7010008B7010008E5
:1000A000B7010008B7010008B7010008B701000850
:1000B0009D490008B7010008B1490008B7010008D0
:1000C000B7010008B7010008B7010008B701000830
:1000D000B7010008B701000835510008B701000852
:1000E000B7010008B7010008B7010008DFF810D019
:1000F00000F0B4FB004800473D790008AFF30080F2
:10010000F8380020224B19680868B0E8F00F80F337
:100110000988BFF36F8F4FF0000080F311884EF015
:100120000D0E70470000000006480068006880F36C
:10013000088862B661B6BFF34F8FBFF36F8F00DFE1
:1001400000BF00BF08ED00E0EFF30980BFF36F8F41
:100150000F4B1A6820E9F00F106008B54FF05000FF
:1001600080F31188BFF34F8FBFF36F8F08F03AFD14
:100170004FF0000080F31188BDE808401968086856
:10018000B0E8F00F80F30988BFF36F8F704700BFAE
:1001900044000020EFF305807047000006488047C8
:1001A00006480047FEE7FEE7FEE7FEE7FEE7FEE75C
:1001B000FEE7FEE7FEE7FEE775480008ED000008F1
:1001C000202A04DB203A21FA02F00021704721FAAC
:1001D00002F3D040C2F12002914008431946704713
:1001E00040EA01039B0703D009E008C9121F08C0B9
:1001F000042AFAD203E011F8013B00F8013B521E39
:10020000F9D27047D2B201E000F8012B491EFBD2AF
:1002100070470022F6E710B513460A460446194611
:10022000FFF7F0FF204610BDF0B480EA0102D40FC2
:100230004200B2EB410F02D20246084611464A0084
:1002400042D0C30DDDB2C1F3C752AD1A202D35DA4D
:10025000C1F3160141F4000204B15242C5F1200677
:1002600002FA06F12A411044B3EBD05F23D0C4B1A7
:10027000012DA0EBC35009DCF0BC4FF0004202EAB4
:10028000C352DBB200F5000000F05CBA400000F1A0
:10029000807000EBC350A0F1807040EAD17049003B
:1002A00009E0490841EAC071A0EBC35000F5000025
:1002B000400800EBC350F0BC00F03BBA61420122A1
:1002C00002EB4101001BF6E7F0BC704781F00041F2
:1002D000AAE780F00040A7E780EA010210B502F02B
:1002E0000043400022D04A001FD0010E01EB1261F2
:1002F000C0F35600C2F3560240F4000042F400027C
:10030000A0FB022000047F39140400D0401C50EAF6
:10031000124001D44000491EC2B20C0604EBD010BA
:10032000401C4008802A02D003E0002010BD20F0CD
:100330000100002900DA0020184310BD30B480EA23
:10034000010202F0004530F0004221F0004013D0DD
:1003500090B1C30DD40DC2F31601C0F31600E41A18
:1003600041F4000140F400027D34914201D3641C49
:1003700000E04900002C02DA30BC002070474FF446
:1003800000000023914201D3891A034340084FEA39
:100390004101F7D151B1914202D14FF0004105E046
:1003A00002D24FF0010101E06FF0010103EBC450F4
:1003B000284430BC00F0BDB92DE9FE4F804681EAEB
:1003C0000300C00F0C46009021F0004123F00045CF
:1003D000B8EB0200A94105D24046214690461C4692
:1003E0000B46024623F00040104347D0270DC7F3C9
:1003F0000A00C3F30A510290401A019040286BDAB8
:10040000C3F3130040F4801B0098924620B10023F0
:10041000D2EB030A63EB0B0B01985946C0F1400283
:10042000504600F065F906460D4650465946019A79
:1004300000F06DF910EB08006141002487EA1152C9
:1004400084EAE7731A4340D0009A62B3019A012A02
:100450004FEA075215DC001B61EB02014FF000422E
:1004600002EA0752CDE90042001C41F580113246F4
:100470002B4600F0A4F903B0BDE8F08F40462146BA
:10048000F9E7001B61EB0201001C41F58013001825
:100490005B412018A2F5001747EB030140EAD57035
:1004A000B6196D4111E06D084FEA360645EAC07590
:1004B0004FEA0752001B61EB0201001C41F580115D
:1004C00049084FEA30000019514132462B4603B02B
:1004D000BDE8F04F00F064B900980122400000230D
:1004E000D0EB020263EBE073009821464FEAE07420
:1004F000B8EB000061EB0401E9E783F000435BE740
:1005000081F0004158E72DE9FE4F81EA030404F031
:10051000004421F0004100944FF0000B23F0004311
:1005200050EA01045ED052EA03045BD0C3F30A54DC
:10053000C1F30A552C44A4F2F3340194A0FB0254F5
:10054000C1F3130141F48011C3F3130343F4801387
:1005500001FB024400FB034E840A970A44EA8154DB
:1005600047EA8357A4FB076802958D0A05FB0785B8
:100570004FEA932C04FB0C542705029D4FEA0658C2
:1005800047EA1637B5EB08056EEB070C870E920E9F
:1005900047EA811742EA8312A7FB0201B6EB0B017F
:1005A00064EB00042B0D43EA0C335E1844EB1C5043
:1005B000DA465146E7FB0201C5F313044FEA0B3359
:1005C00043EA14534FEA0432019C43EA0603A4F1C0
:1005D0000C040294009CCDE900B400F0F0F803B0E4
:1005E000BDE8F08F00200146F9E7C10F80EAE07016
:1005F0000844CA079623002100F0A4B896230022DD
:10060000114600F09FB800F0004220F00040C10DFC
:10061000C0F3160040F400007F2901DA0020704783
:10062000962903DCC1F19601C84001E09639884063
:10063000002AF4D040427047C1F30A5210B5C1F30A
:10064000130140F2FF3341F480119A4201DA002095
:1006500010BD40F233439A42A2F2334203DC5242CD
:10066000FFF7AEFD10BD904010BD00F0004230F02D
:1006700000400AD0C10D01F56071C0F3160042EAD6
:100680000151C208400711437047002001467047DE
:1006900001F0004330B421F0004150EA010206D0DD
:1006A0000A0DA2F56072C1F31301002A02DC30BC0E
:1006B00000207047440F44EAC104C100E01830BC78
:1006C00000EBC25000F035B8002801DBC0F100405B
:1006D000002901DBC1F1004181427047002801DBA4
:1006E000C0F10040002901DBC1F1004188427047A0
:1006F000202A04DB203A00FA02F1002070479140E2
:10070000C2F1200320FA03F3194390407047202AD6
:1007100006DBCB17203A41FA02F043EAE07306E029
:1007200041FA02F3D040C2F1200291400843194639
:1007300070470029A8BF7047401C490008BF20F03F
:100740000100704710B4B0FA80FC00FA0CF050EAD7
:10075000010404BF10BC704749B1CCF1200421FA58
:1007600004F411FA0CF118BF012121430843A3EB53
:100770000C01CB1D4FEA00614FEA102042BF002060
:1007800010BC704700EBC35010440029A4BF10BC3C
:100790007047401C490008BF20F0010010BC7047A2
:1007A00010B5141E73F1000408DA401C41F1000179
:1007B00092185B411A4301D120F0010010BD2DE9D0
:1007C000F04D92469B4611B1B1FA81F202E0B0FAC7
:1007D00080F220329046FFF78BFF04460F4640EA36
:1007E0000A0041EA0B0153465A46084313D011460A
:1007F00053EA010019D0C8F140025046FFF7E0FC6F
:1008000005460E46504659464246FFF771FF0843DB
:1008100005D0012004E020463946BDE8F08D0020D7
:10082000054346EAE0762C4337430A986305E40A19
:10083000A0EB08000022FD0A44EA47540A3002D522
:1008400000200146E9E7010510196941DDE9084585
:1008500000196941BDE8F04DA2E70000064C074DC4
:1008600006E0E06840F0010394E807009847103480
:10087000AC42F6D3FFF73EFC349C0008549C0008C1
:1008800070B58C1810F8015B15F0070301D110F852
:10089000013B2A1106D110F8012B03E010F8016B7F
:1008A00001F8016B5B1EF9D12B0705D40023521E02
:1008B0000DD401F8013BFAE710F8013BCB1A921C6A
:1008C00003E013F8015B01F8015B521EF9D5A14268
:1008D000D8D3002070BD00BFFEE70346042B15D01F
:1008E00007DC7BB1012B0ED0022B0DD0032B12D1D4
:1008F0000BE0202B0BD0212B0AD0222B09D0232B4D
:1009000009D107E008E007E006E005E004E003E0C5
:1009100002E001E000E000BF00BF002070470020BF
:100920007047000010B500220449054804F04BFD53
:100930000449034804F040FD002010BD002C0020B5
:10094000542300201828002070B504460D46214687
:10095000034804F031FD024804F00AFD002070BD98
:1009600054230020F0B502460B46FF24FF2516460F
:1009700009E016F8010B80EA04010748405C80EAB0
:1009800005040648455C181EA3F10107BBB2F0D16F
:1009900045EA0420F0BD00000C9A00080C9B0008FA
:1009A00008B501460B466A465878107018785070A2
:1009B000D87890709878D070009808BD01460A46A3
:1009C0005078137800EB032000B2704770B51249DD
:1009D0000888FFF713FE04460F494888FFF70EFE0C
:1009E00005460E4841682046FFF770FC06460B4856
:1009F00081683046FFF770FC094908600748C16903
:100A00002846FFF763FC06460448016A3046FFF7B4
:100A100063FC0449086070BD1400002048030020F6
:100A2000800300209003002070B5164890F8340031
:100A300030B3382408F0CEF800201349087004E0E1
:100A4000224610491048FFF7CBFB0F4800780028DA
:100A5000F6D008F075FE21460B48FFF783FF0546E8
:100A60000949081929B202F022FE0649488806F011
:100A700083FE06F0E1FE0020024981F8340000BF49
:100A800070BD000048030020F80500202DE9F04764
:100A900081468A464FF07E515046FFF71FFE02D234
:100AA0004FF07E5000E05046824600215046FFF74E
:100AB0000BFE01D2002000E0504682465046FFF770
:100AC000D4FD074600220C4BFFF71DFD0546FFF73E
:100AD000B3FD84B2B9F1000F03D0B9F1010F07D112
:100AE00002E00648046004E00448001D046000E0E1
:100AF00000BF00BFBDE8F0870088D3403C04004041
:100B00007047000001201B4908704FF416504880C0
:100B10000021184881814FF4FA71C18100210182BE
:100B20004FF4FA7141821448124948601349114840
:100B300081604FF07C5141614FF07F518161002114
:100B400081844FF4FA71C184002101854FF4FA7158
:100B5000418509480749C8610849064801624FF0C4
:100B60007C51C1624FF07F510163FF20014981F840
:100B700034007047480300200080FD437BB7223DCE
:100B8000704700000021074AD1610749096941F017
:100B90000401054A11611146096941F040011161E2
:100BA0007047000060060020002002400021074A34
:100BB000D1610749096941F00201054A11611146F5
:100BC0004861096941F040011161704760060020E9
:100BD000002002400022054BDA61054A126942F00A
:100BE0000102034B1A61018070470000600600207B
:100BF0000020024000201E49C96801F0100139B1EF
:100C00001C49C96941F002011A4AD16140F0100043
:100C10001749C96801F0040139B11649C96941F0A1
:100C20000101144AD16140F004001149C96901F081
:100C3000010169B10F49C96941F004010D4AD1614F
:100C400000BF0B49C96921F00101094AD16100BF08
:100C500000BF40F20111884206D10549C96921F05F
:100C60000101034AD16101E00149C86000BF70473A
:100C7000002002406006002070B5044600F01AFB18
:100C8000054609E0601C38B124B100F013FB401B9D
:100C9000A04201D9032070BD1248C06800F00100D5
:100CA0000028EFD10F48C06800F0200020B100BF3D
:100CB00020200C49C86000BF0A48C06800F010003E
:100CC00048B90848C06900F0010020B90548C0686B
:100CD00000F0040018B1FFF78DFF0120DBE70020D2
:100CE000D9E700000020024003B5024601A94B7875
:100CF00013700B785370CB7893708B78D3700CBDD6
:100D000070B50A480468001D0568001D0668344473
:100D100054B108220649204602F0CEFC04220449C0
:100D20001031284602F0C8FC70BD0000E8F7FF1F34
:100D3000F200002070B50446002594F82100022836
:100D400003D00420A063012548E02068006820F05B
:100D50000E00216808602068006820F0010021680A
:100D600008601F492068884201D1012026E01C4903
:100D700014312068884201D110201FE01849283121
:100D80002068884201D1801518E015493C3120685F
:100D9000884201D1801411E0114950312068884205
:100DA00002D14FF4803009E00D4964312068884257
:100DB00002D14FF4801001E04FF0807008490839EB
:100DC0004860012084F8210000BF002084F8200042
:100DD00000BF606B10B12046616B8847284670BD2C
:100DE000080002402DE9F04104460E460127002587
:100DF00000BF2648007E012802D10220BDE8F08114
:100E000001202249087600BF2068022813D14CF245
:100E10005030FFF731FF90BB0120FFF7B3FE4CF2DB
:100E20005030FFF729FF07461948006920F00400F9
:100E30001749086123E04CF25030FFF71DFFF0B96D
:100E40004FF0FF303060A56812E02846FFF7AEFE95
:100E50004CF25030FFF710FF07460D48006920F0B4
:100E600002000B4908610FB1356007E005F58065A8
:100E7000D4E9021001EB8020A842E6D800BF00BFF1
:100E800000200249087600BF3846B7E76006002018
:100E9000002002400348006940F0800001490861D9
:100EA00000207047002002402DE9FE4F05468B468A
:100EB00017469846012600240020029000BF2448CF
:100EC000007E012802D10220BDE8FE8F01202049CA
:100ED000087600BF4CF25030FFF7CEFE064686BBC8
:100EE000012D02D10120029006E0022D02D1022044
:100EF000029001E00420029000241EE02201B94685
:100F0000C24648465146FFF75BF980B20190022085
:100F100000FB04B000900199FFF75CFE4CF25030EA
:100F2000FFF7AAFE06460B48006920F001000949B8
:100F3000086106B104E0601CC4B202988442DDDBA3
:100F400000BF00BF00200249087600BF3046BBE763
:100F5000600600200020024000200849096901F0D5
:100F6000800151B10649054A516006495160114658
:100F7000096901F0800101B10120704700200240A1
:100F800023016745AB89EFCD2DE9F84703460022E1
:100F900094466EE14FF0010808FA02F4D1F800809F
:100FA00008EA0400A0427DD1DFF8DCA2D1F8048079
:100FB000A8EB0A09D0453AD014DCB8F1030F50D0A1
:100FC00009DCB8F1000F31D0B8F1010F1CD0B8F135
:100FD000020F49D120E0B8F1110F18D0B8F1120F6B
:100FE00042D11EE0B9F5881F25D006DCB9F5803F57
:100FF00020D0B9F5801F37D11AE0B9F5001F18D0FD
:10100000B9F5041F30D117E0D1F80CC02DE0D1F8AC
:101010000C8008F1040C28E0D1F80C8008F1080CD1
:1010200023E0D1F80C8008F10C0C1EE000BF00BFDB
:1010300000BF00BF00BF00BFD1F80880B8F1000FAB
:1010400002D14FF0040C0BE0D1F80880B8F1010F89
:1010500003D14FF0080C1C6102E04FF0080C5C61FA
:1010600003E04FF0000C00E000BF00BFFF2801D8F4
:10107000984601E003F104084646FF2802D84FEAEB
:10108000820803E0A2F108084FEA88084746D6F82C
:1010900000804FF00F0909FA07F928EA09080CFA4D
:1010A00007F900E088E048EA0908C6F80080D1F8AE
:1010B000048008F08058B8F1805F7DD100BFDFF870
:1010C000CC81D8F8188048F00108DFF8C091C9F841
:1010D0001880C846D8F8188008F00108CDF80080BC
:1010E00000BF00BF4FEAB9384FEA920958F82950BB
:1010F0004FEA82784FEA18794FF00F0808FA09F89A
:1011000025EA0805DFF88881434502D14FF0000841
:1011100016E0DFF88081434502D14FF001080FE06F
:10112000DFF87481434502D14FF0020808E0DFF890
:101130006C81434502D14FF0030801E04FF00408F1
:101140004FEA82794FEA197908FA09F848EA050561
:10115000DFF84C814FEA920948F82950D1F8048011
:1011600008F48038B8F5803F0AD1DFF83881D8F824
:10117000008048EA0008DFF82C91C9F8008009E0F7
:10118000DFF82081D8F8008028EA0008DFF8149101
:10119000C9F80080D1F8048008F40038B8F5003FA1
:1011A00010D1DFF8008108F10408D8F8008048EA7F
:1011B0000008DFF8F09000E05AE009F10409C9F8EE
:1011C00000800DE0DFF8DC8008F10408D8F800802A
:1011D00028EA0008DFF8CC9009F10409C9F800807A
:1011E000D1F8048008F48018B8F5801F0ED1DFF81C
:1011F000B48008F10808D8F8008048EA0008DFF851
:10120000A49009F10809C9F800800DE0DFF8948086
:1012100008F10808D8F8008028EA0008DFF8849070
:1012200009F10809C9F80080D1F8048008F4001811
:10123000B8F5001F0ED1DFF86C8008F10C08D8F863
:10124000008048EA0008DFF85C9009F10C09C9F851
:1012500000800DE0DFF84C8008F10C08D8F8008021
:1012600028EA0008DFF83C9009F10C09C9F8008071
:10127000521CD1F8008028FA02F8B8F1000F7FF470
:1012800089AEBDE8F8870000000011100010024090
:1012900000080140000C0140001001400014014012
:1012A00008000140000401400AB1016101E00B04A3
:1012B0000361704701480068704700002400002067
:1012C00003480068034909780844014908607047E9
:1012D000240000202C00002010B50848006840F0D1
:1012E000100006490860032000F0C6F8002000F056
:1012F00007F800F049F8002010BD0000002002406F
:1013000070B588B0044600250026002221461E2024
:1013100000F074F81E2000F061F800BF1648C069A4
:1013200040F004001449C8610846C06900F0040098
:10133000019000BF00BF02A903A801F045F801F029
:101340006BF845000D48B5FBF0F0461E0C480D4902
:10135000086040F2E7310B48C1604660002101613E
:10136000816001F039FB20B9064801F0BDFB08B0EF
:1013700070BD0120FBE700000010024040420F005A
:10138000000800400003002008B500BF1148806934
:1013900040F001000F4988610846806900F00100B3
:1013A000009000BF00BF00BF0846C06940F08050F9
:1013B000C8610846C06900F08050009000BF00BFBF
:1013C00000BF0549486820F0E06040F000704860C8
:1013D00000BF08BD00100240000001400146084661
:1013E000002809DB00F01F0301229A4043099B00FB
:1013F00003F1E023C3F8002100BF70472DE9F05F3F
:1014000080460D461646002706F064FA0746394620
:101410002A46334601F00700C0F1070ABAF1040F6B
:1014200002D94FF0040A01E0C0F1070AD14600F1E9
:10143000040ABAF1070F02D24FF0000A01E0A0F14E
:10144000030AD4464FF0010A0AFA09FAAAF1010A7E
:101450000AEA020A0AFA0CFA4FF0010B0BFA0CFB2B
:10146000ABF1010B0BEA030B4AEA0B0421464046A1
:1014700006F038FABDE8F09F00BF00F00702064B07
:1014800019684FF6FF031940044B0B4343EA02214E
:10149000014B196000BF70470CED00E00000FA0539
:1014A00070B505460C4604F08000802808D104F091
:1014B000070000EB800605F1280000EBC60105E0FF
:1014C00004EB840605F5B47000EBC6011AB90020E0
:1014D0000873CB8004E0012008730B81180C48814D
:1014E000002070BD704770B504460D4605EB8503BE
:1014F00004F1280101EBC3014A692946D4F8E80246
:1015000004F0D4FA70BD70B504460D4605EB8503B2
:1015100004F5B47101EBC3014A692946D4F8E80225
:1015200004F044FB70BD70B504460E4606F0800022
:1015300080280AD106F0070000EB800104F12800A2
:1015400000EBC1050120687009E006F0070000EB20
:10155000800104F5B47000EBC1050020687006F04E
:101560000700287000BF94F8A802012801D10220CA
:1015700070BD012084F8A80200BF2946206805F04C
:101580009DF900BF002084F8A80200BF00BFEFE76C
:1015900070B504460E4606F00F006168884201D916
:1015A000012070BD06F0800080280AD106F00700F7
:1015B00000EB800104F1280000EBC10501206870F8
:1015C00009E006F0070000EB800104F5B47000EBC1
:1015D000C105002068700020A87006F00700287080
:1015E00000BF94F8A802012801D10220D9E7012008
:1015F00084F8A80200BF2946206805F0BBFA00BFA6
:10160000002084F8A80200BF00BFCAE72DE9F0411E
:1016100005460C46174607F48040002850D028683D
:10162000B0F85010207801EBC000801C296801F54B
:10163000806131F81000C0F30906A069B04203D3FD
:10164000A069801BA06101E00020A061A069A8B989
:1016500000BF22785200296831F812104BF68F72C1
:1016600001EA020080F4005040F4004141F08001A2
:1016700023785B002A6822F8131000BF07F04000AF
:10168000A8B100BF00BF22785200296831F81210BB
:1016900048F68F7201EA020040F4004141F0C001B7
:1016A00023785B002A6822F8131000BF00BF002EC9
:1016B00055D0228961693346286806F00BF84EE060
:1016C0002868B0F85010207801EBC000801D296810
:1016D00001F5806131F81000C0F30906A069B0423D
:1016E00003D3A069801BA06101E00020A061A06974
:1016F000A8B900BF22785200296831F812104BF6C1
:101700008F7201EA020080F4005040F4004141F081
:10171000800123785B002A6822F8131000BF07F0CD
:101720004000A8B900BF00BF22785200296831F8F4
:10173000121048F68F7201EA020040F4004141F0B5
:10174000C00123785B002A6822F8131000BF00BF95
:101750002EB1628961693346286805F0BBFF3046C7
:10176000BDE8F0812DE9F04705460C46904608F0AB
:10177000400000287ED02868B0F85010207801EB97
:10178000C000801C296801F5806131F81000C0F3A9
:101790000907A069B84203D9A069C01BA06101E094
:1017A0000020A061A069E8B921782846FFF79BFED8
:1017B00008F48040002814D000BF00BF22785200F7
:1017C000296831F8121048F68F7201EA020040F4DD
:1017D000004141F4814123785B002A6822F813100C
:1017E00000BF5FE108F48040A8B100BF00BF2278CD
:1017F0005200296831F8121048F68F7201EA02008F
:1018000040F4004141F4814123785B002A6822F8CA
:10181000131000BF00BF94F824000128E1D16069D3
:1018200038446061E0693844E0612169206A884297
:1018300004D32669206A801B20620BE0206A20B94D
:101840003E46002084F8240004E0002084F82400B0
:10185000266A206200BF6078C8BB00BF2A6829687A
:10186000B1F850100A442178022303EBC10102F5BC
:10187000806300E047E003EB4101084600BF56B932
:10188000038848F2FF3C03EA0C030380038843F417
:101890000043038019E03E2E0BD800BF710806F00C
:1018A000010303B1491C4FF6FF7303EA8123038050
:1018B0000BE000BF710906F01F0303B9491E4FF486
:1018C000004343EA8123038000BF00BF13E0FFE72A
:1018D000607801280FD100BF28682A68B2F850202C
:1018E00010442278022303EBC20200F5806303EB6D
:1018F00042010E8000BF00BFB3B22289616928682F
:1019000005F017FFCEE02868B0F85010207801EB02
:10191000C000801D296801F5806131F81000C0F316
:101920000907A069B84203D3A069C01BA06101E008
:101930000020A061A069E8B921782846FFF7D3FD0F
:1019400008F480400028DDD100BF00BF227852009B
:10195000296831F8121048F68F7201EA020040F44B
:10196000004141F4814123785B002A6822F813107A
:1019700000BF97E008F48040A8B900BF00BF2278FC
:101980005200296831F8121048F68F7201EA0200FD
:1019900040F4004141F4814123785B002A6822F839
:1019A000131000BF00BF94F8240001287AD16069A9
:1019B00038446061E0693844E0612169206A884206
:1019C00004D32669206A801B20620BE0206A20B9BC
:1019D0003E46002084F8240004E0266A00202062AD
:1019E00084F8240000BF2A68607890BB00BFD5F857
:1019F00000C02968B1F850108C4421784FF00609D6
:101A000009EBC1010CF5806909EB4101084600BFF3
:101A100076B9B0F8009048F2FF3A09EA0A09A0F84E
:101A20000090B0F8009049F40049A0F8009020E040
:101A30003E2E0FD800BF710806F00109B9F1000F62
:101A400000D0491C4FF6FF7909EA8129A0F80090DF
:101A50000FE010E000BF710906F01F09B9F1000F97
:101A600000D1491E4FF4004949EA8129A0F80090AD
:101A700000BF00BF0FE0607801280CD12868B0F8E3
:101A8000500002442078062101EBC00002F580617D
:101A900001EB40031E8000BFB3B262896169286810
:101AA00005F047FE00BF22785200296831F8121075
:101AB00048F6BF7201EA020080F0100080F02000BA
:101AC00040F4004141F0800123785B002A6822F84D
:101AD000131000BF0020BDE8F087024601F00700A8
:101AE00000EB800302F5B47000EBC300C0697047DF
:101AF0002DE9F04705460E4690461F464FF0000977
:101B000006F0800080280AD106F0070000EB800173
:101B100005F1280000EBC1040120607009E006F027
:101B2000070000EB800105F5B47000EBC104002054
:101B3000607006F007002070C4F81080E7706078CD
:101B400008B12078E081022F01D10020207100BF70
:101B500095F8A802012802D10220BDE8F0870120F3
:101B600085F8A80200BF2146286804F07DFC00BF6C
:101B7000002085F8A80200BF4846EEE72DE9F041B5
:101B800005460E461746984606F0070000EB800112
:101B900005F5B47000EBC1046761C4F8188000203B
:101BA000E061607006F00700207006F0070020B9C1
:101BB0002146286805F079F803E02146286805F0F9
:101BC00074F80020BDE8F08170B504460D4605F0BC
:101BD00007006168884201D9012070BD05F08000CE
:101BE00080280AD105F0070000EB800104F12800ED
:101BF00000EBC1060120707007E005EB850104F5DC
:101C0000B47000EBC106002070700120B07005F0C8
:101C10000700307000BF94F8A802012801D102200B
:101C2000DBE7012084F8A80200BF3146206805F0F8
:101C30000EF805F0070020B904F52C71206804F0B7
:101C400096FF00BF002084F8A80200BF00BFC4E7D1
:101C50002DE9F04105460E4690461F4606F0070066
:101C600000EB800105F1280000EBC104C4F81480EA
:101C7000A761012084F8240027620020E061012090
:101C8000607006F00700207006F0070020B92146BA
:101C9000286805F00AF803E02146286805F005F8F1
:101CA0000020BDE8F0817FB50446206805F00EFDF8
:101CB00000F40040B0F5004F02D1204602F0EAFAED
:101CC000206805F003FD00F48060B0F5806F0FD14F
:101CD0002068B0F844004FF6FF3108402168A1F8B1
:101CE0004400204600F09EF90021204600F0BAF999
:101CF000206805F0EBFC00F48040B0F5804F08D17F
:101D00002068B0F844004BF6FF7108402168A1F844
:101D10004400206805F0DAFC00F40050B0F5005FE4
:101D200008D12068B0F844004DF6FF7108402168E2
:101D3000A1F84400206805F0C9FC00F48050B0F51B
:101D4000805F1DD12068B0F840004FF6FB7108405D
:101D50002168A1F840002068B0F840004FF6F77104
:101D600008402168A1F84000204600F06DF9206885
:101D7000B0F844004EF6FF7108402168A1F8440015
:101D8000206805F0A3FC00F40060B0F5006F55D1A9
:101D9000002507E06900206830F811002DF81500D3
:101DA000681CC5B2082DF5D32068B0F8400040F09B
:101DB00001002168A1F840002068B0F840004FF60B
:101DC000FE7108402168A1F8400000BF2068B0F80B
:101DD000440000F480600028F8D02068B0F8440087
:101DE0004FF6FF3108402168A1F84400002507E0C4
:101DF0003DF815006A00216821F81200681CC5B280
:101E0000082DF5D32068B0F8400040F008002168A4
:101E1000A1F840002068B0F844004FF2FF7108407C
:101E20002168A1F844002068B0F8400040F00400A8
:101E30002168A1F84000204600F056F9206805F01E
:101E400045FC00F40070B0F5007F0BD12068B0F8BD
:101E500044004FF6FF5108402168A1F84400204695
:101E600000F0F9F8206805F031FC00F48070B0F55E
:101E7000807F08D12068B0F844004FF6FF61084029
:101E80002168A1F844007FBD30B585B0044614B97F
:101E9000012005B030BD94F8A90228B9002084F8CB
:101EA000A802204600F09CF8032084F8A9022068CC
:101EB00004F053FE142204F110016846FEF790F975
:101EC00094E80F0004F0F6FC20B1022084F8A90287
:101ED0000120DEE70021206805F021FC002531E02B
:101EE000012105EB850204F1280000EBC2004170DE
:101EF00005EB850104F1280000F8315005EB850160
:101F000000EBC100C581002105EB850204F128002A
:101F100000EBC200C17005EB850204F1280000EB64
:101F2000C200016105EB850204F1280000EBC2004C
:101F3000416105EB850204F1280000EBC2008161DC
:101F4000681CC5B26068A842CAD800252AE00021F2
:101F500005EB850204F5B47000EBC200417005EB9F
:101F6000850104F5B47000F83150002105EB8502BD
:101F700000EBC200C17005EB850204F5B47000EB04
:101F8000C200016105EB850204F5B47000EBC200EC
:101F9000416105EB850204F5B47000EBC20081617C
:101FA000681CC5B26068A842D1D8142204F110019F
:101FB0006846FEF715F994E80F0004F0C3FD20B160
:101FC000022084F8A902012063E7002084F824009D
:101FD000012084F8A902206804F0B1FD002058E730
:101FE00038B504460D492068884215D100BF0C4819
:101FF000C06940F400000A49C8610846C06900F49D
:102000000000009000BF00BF002211461420FFF71F
:10201000F5F91420FFF7E2F938BD0000005C00403C
:102020000010024070B504460125A068022801D0C6
:10203000FEF7A6FD2946D4F8E80203F0EBFED4F83B
:10204000E80203F09DFE70BD10B50446D4F8E80226
:1020500003F0C4FE10BD10B50446D4F8E80203F046
:10206000C8FE10BD70B504460D4600BF94F8A80226
:10207000012801D1022070BD012084F8A80200BF10
:1020800084F824502946206805F04CFB00BF00204E
:1020900084F8A80200BF00BFEDE710B5044604F5C0
:1020A0002C71D4F8E80203F0CCFE10BD10B5044644
:1020B00000BF94F8A802012801D1022010BD012020
:1020C00084F8A80200BF206805F0EEFA012120463E
:1020D000FFF708FA206804F02FFD00BF002084F805
:1020E000A80200BF00BFE9E710B50446D4F8E80233
:1020F00003F000FFA06928B10348006840F0060023
:102100000149086010BD000010ED00E0F8B504467C
:1021100000260025207800F0010000286BD0002761
:102120004348C06900F0805070B900BF4048C069A2
:1021300040F080503E49C8610846C06900F08050B8
:10214000009000BF00BF01273A48006800F480708B
:10215000B0B93848006840F4807036490860FFF72D
:10216000A9F8064606E0FFF7A5F8801B642801D908
:102170000320F8BD2F48006800F480700028F2D0DA
:102180002B48006A00F440752DB3A08800F440701D
:10219000A84220D02648006A20F440750120264934
:1021A0000860002008602248056205F0010090B137
:1021B000FFF780F8064608E0FFF77CF8801B41F245
:1021C0008831884201D90320D3E71948006A00F01A
:1021D00002000028F0D01648006A20F440706168C0
:1021E000084313490862012F04D10846C06920F052
:1021F0008050C86100BF207800F00200022807D19B
:102200000B48406820F44040A168084308494860F2
:10221000207800F01000102807D10548406820F40D
:102220008000E1680843024948600020A1E70000FF
:1022300000100240007000404004424270B5044665
:102240000D460CB9012070BD5A48006800F0070027
:10225000A8420ED25748006820F00700284355498D
:1022600008600846006800F00700A84201D001207D
:10227000E9E7207800F0020002281DD1207800F064
:102280000400042805D14C48406840F4E0604A4905
:102290004860207800F00800082805D146484068CA
:1022A00040F46050444948604348406820F0F000E2
:1022B000A168084340494860207800F0010078B3E5
:1022C0006068012806D13C48006800F4003090B9ED
:1022D0000120B8E76068022806D13748006800F09E
:1022E000007040B90120AEE73348006800F00200FA
:1022F00008B90120A7E73048406820F00300616872
:1023000008432D494860FEF7D5FF064609E0FEF771
:10231000D1FF801B41F28831884202D9032092E725
:1023200007E02548406800F00C006168B0EB810FC1
:10233000EDD12048006800F00700A8420ED91D48E2
:10234000006820F0070028431A4908600846006822
:1023500000F00700A84201D0012074E7207800F0C7
:102360000400042807D11448406820F4E060E168C4
:10237000084311494860207800F00800082808D177
:102380000D48406820F46050216940EAC1000A49C4
:10239000486000F061F808494968C1F30311074A31
:1023A000515CC8400649086006480068FEF7A8FF6F
:1023B000002048E70020024000100240F499000885
:1023C00030000020280000200F2202600D4A5268D1
:1023D00002F0030242600B4A526802F0F00282608F
:1023E000084A526802F4E062C260064A526802F487
:1023F0006052D2080261044A126802F007020A60C1
:1024000070470000001002400020024001480068B0
:10241000704700003000002000B5FFF7F7FF0449C7
:102420004968C1F30221034A515CC84000BD000065
:1024300000100240049A000800B5FFF7E7FF0449C6
:102440004968C1F3C221034A515CC84000BD000085
:1024500000100240049A0008F0B585B00FF26C0C31
:102460009CE8E01001A8A0E8E0101CA52D680095EC
:1024700000210022002300240020194D696801F08A
:102480000C05F5B1042D02D0082D19D101E0154835
:1024900019E001ADC1F38346AC5D01F4803555B15F
:1024A0000F4D6D68C5F340451DF805200D4D654382
:1024B000B5FBF2F302E00C4D04FB05F3184602E015
:1024C00000BF084800BF00BF05B0F0BD020304050F
:1024D000060708090A0B0C0D0E0F10100102000070
:1024E0000010024000127A0000093D00F8B50446D1
:1024F0000CB90120F8BD207800F00100002878D048
:10250000F848406800F00C0004280CD0F5484068FA
:1025100000F00C00082811D1F248406800F4803027
:10252000B0F5803F0AD1EF48006800F40030002881
:102530005FD0606800285CD10120DBE700BF6068E5
:10254000B0F5803F06D1E748006840F48030E549A7
:10255000086028E0606858B9E248006820F48030DC
:10256000E04908600846006820F4802008601AE00E
:102570006068B0F5A02F0BD1DA48006840F48020E5
:10258000D84908600846006840F4803008600AE0D6
:10259000D448006820F48030D249086008460068BA
:1025A00020F48020086000BF606888B1FEF782FEDA
:1025B000054606E0FEF77EFE401B642801D9032095
:1025C00098E7C848006800F400300028F2D010E016
:1025D000FEF770FE054606E0FEF76CFE401B642821
:1025E00001D9032086E7BF48006800F400300028C6
:1025F000F2D1207800F00200022857D1B948406893
:1026000000F00C0050B1B748406800F00C000828FA
:1026100018D1B448406800F4803098B9B1480068D7
:1026200000F0020020B12069012801D0012061E7FB
:10263000AC48006820F0F800616940EAC100A9498F
:10264000086033E02069E8B10120A7490860FEF77F
:1026500031FE054606E0FEF72DFE401B022801D99B
:10266000032047E79F48006800F002000028F2D0EE
:102670009C48006820F0F800616940EAC10099496F
:10268000086013E0002098490860FEF713FE054635
:1026900006E0FEF70FFE401B022801D9032029E7C0
:1026A0009048006800F002000028F2D1207800F085
:1026B000080008282DD1A069B8B101208B49086015
:1026C000FEF7F8FD054606E0FEF7F4FD401B022884
:1026D00001D903200EE78348406A00F00200002879
:1026E000F2D0012001F0C8FF13E000207F4908600C
:1026F000FEF7E0FD054606E0FEF7DCFD401B022884
:1027000001D90320F6E67748406A00F0020000286D
:10271000F2D1207800F00400042873D1002771481A
:10272000C06900F0805070B900BF6E48C06940F0C9
:1027300080506C49C8610846C06900F08050009024
:1027400000BF00BF01276A48006800F48070B0B97C
:102750006748006840F4807065490860FEF7AAFD8C
:10276000054606E0FEF7A6FD401B642801D90320BC
:10277000C0E65F48006800F480700028F2D000BF17
:10278000E068012806D15748006A40F00100554929
:10279000086227E0E06858B95248006A20F001005A
:1027A000504908620846006A20F00400086219E0F7
:1027B000E06805280BD14B48006A40F00400494905
:1027C00008620846006A40F0010008620AE04548D5
:1027D000006A20F00100434908620846006A20F0C0
:1027E0000400086200BFE068A0B1FEF763FD054683
:1027F00009E0FEF75FFD401B41F28831884202D9B3
:10280000032077E622E03748006A00F00200002843
:10281000EFD012E0FEF74EFD054608E0FEF74AFD58
:10282000401B41F28831884201D9032062E62D48DD
:10283000006A00F002000028F0D1012F05D12948DC
:10284000C06920F080502749C86100BFE069C8B363
:102850002448406800F00C00082860D0E069022895
:1028600048D1002020490866FEF724FD054606E011
:10287000FEF720FD401B022801D903203AE6194843
:10288000006800F000700028F2D1206AB0F5803FA7
:1028900007D11448406820F40030A168084311496A
:1028A0004860D4E9080108430E49496821F47411CD
:1028B00008430C49486001200B490866FEF7FAFC02
:1028C000054607E03DE0FEF7F5FC401B022801D974
:1028D00003200FE60348006800F000700028F2D0E3
:1028E0002FE00000001002400000424280044242FB
:1028F00000700040002014490866FEF7DBFC054626
:1029000006E0FEF7D7FC401B022801D90320F1E5C1
:102910000E48006800F000700028F2D111E0E06974
:10292000012800D1E6E50948466806F48031206AAE
:10293000814204D106F47011606A814201D0012005
:10294000D8E50020D6E50000000042420010024019
:102950007047704730B502460B4600BF92F83C0006
:10296000012801D1022030BD012082F83C0000BFC7
:10297000022082F83D00106844681068816824F0E5
:1029800070041868044310684460104D1068A84231
:102990000BD01068B0F1804F07D00D4D1068A842E1
:1029A00003D00C4D1068A84205D121F08001586871
:1029B000014310688160012082F83D0000BF0020C3
:1029C00082F83C0000BF00BFCDE70000002C0140B2
:1029D000000400400008004010B504460CB9012076
:1029E00010BD94F83D0028B9002084F83C00204632
:1029F00000F026F8022084F83D00211D206801F037
:102A0000DFFF012084F8460000BF84F83E0001216A
:102A10003F200155402001554120015500BF00BF16
:102A2000012084F8420043200155442001554520EF
:102A3000015500BF012084F83D000020D0E70000D0
:102A400010B586B0044600200290039004900590D3
:102A50002068B0F1804F2DD100BF2048C06940F000
:102A600001001E49C8610846C06900F001000190DC
:102A700000BF00BF00BF0846806940F004008861C5
:102A80000846806900F00400019000BF00BF0320E9
:102A90000290002003900120049002A91048FEF744
:102AA00073FA002211461C20FEF7A8FC1C20FEF73A
:102AB00095FC11E00B49206888420DD100BF074802
:102AC000C06940F002000549C8610846C06900F0CD
:102AD0000200019000BF00BF06B010BD0010024010
:102AE0000008014000040040014691F83D00012823
:102AF00001D001207047022081F83D000868C068BD
:102B000040F001000B68D860124B086898420BD067
:102B10000868B0F1804F07D00F4B0868984203D087
:102B20000E4B086898420CD10868806800F00702D4
:102B3000062A0CD00868006840F001000B68186095
:102B400005E00868006840F001000B68186000208C
:102B5000D0E70000002C01400004004000080040C5
:102B60002DE9F04104460D4600BF94F83C000128D1
:102B700002D10220BDE8F081012084F83C0000BFB2
:102B8000022084F83D002068866826F0770626F447
:102B90007F46206886602868502833D00CDC2028C7
:102BA00050D004DC00284BD0102851D149E0302807
:102BB00049D040284CD139E060282DD0702807D06A
:102BC000B0F5805F03D0B0F5005F41D10DE040E08B
:102BD000D5E902136A68206801F03DFF2068866825
:102BE00046F077062068866033E0D5E902136A680C
:102BF000206801F030FF2068806840F48040216840
:102C0000886026E0EA686968206801F0F5FF5021D5
:102C1000206801F02BFF1CE0EA686968206802F078
:102C200033F86021206801F021FF12E0EA6869684A
:102C3000206801F0E1FF4021206801F017FF08E063
:102C400000BF00BF00BF2968206801F00FFF00E04F
:102C500000BF00BF012084F83D0000BF002084F8C1
:102C60003C0000BF00BF85E770472DE9F0410446F6
:102C70000D46164600BF94F83C00012802D1022000
:102C8000BDE8F081012084F83C0000BF96B9EB68F4
:102C9000D5E90012206801F0C3FF2068806920F0A8
:102CA0000C002168886120688069A9680843216850
:102CB00088613DE0042E13D1EB68D5E9001220684D
:102CC00001F0F6FF2068806920F440602168886187
:102CD00020688069A96840EA01202168886127E0AE
:102CE000082E12D1EB68D5E90012206801F0FDFF33
:102CF0002068C06920F00C002168C8612068C069A4
:102D0000A96808432168C86112E0EB68D5E90012A0
:102D1000206802F006F82068C06920F4406021684D
:102D2000C8612068C069A96840EA01202168C861BB
:102D300000BF002084F83C0000BF00BFA0E710B532
:102D400004460CB9012010BD94F83D0028B90020BC
:102D500084F83C00204600F025F8022084F83D006D
:102D6000211D206801F02CFE012084F8460000BFE0
:102D700084F83E0001213F200155402001554120AB
:102D8000015500BF00BF012084F8420043200155D7
:102D9000442001554520015500BF012084F83D0025
:102DA0000020D0E7704700002DE9F04104460D46B1
:102DB00015B994F83E000BE0042D02D13F20005DD0
:102DC00006E0082D02D14020005D01E04120005DB9
:102DD000074615B994F842000BE0042D02D14320B8
:102DE000005D06E0082D02D14420005D01E0452091
:102DF000005D8046012F02D1B8F1010F02D0012001
:102E0000BDE8F0811DB9022084F83E000EE0042DDB
:102E100003D102213F20015508E0082D03D10221F2
:102E20004020015502E00221412001551DB9022038
:102E300084F842000EE0042D03D102214320015505
:102E400008E0082D03D102214420015502E00221AF
:102E50004520015535B1042D0BD0082D10D00C2D77
:102E60001CD114E02068C06840F002002168C860EE
:102E700015E02068C06840F004002168C8600EE0DA
:102E80002068C06840F008002168C86007E020683A
:102E9000C06840F010002168C86000E000BF00BFBB
:102EA00001222946206801F0C5FD124920688842A8
:102EB0000BD02068B0F1804F07D00F4920688842BE
:102EC00003D00E49206888420CD12068806800F049
:102ED0000706062E0CD02068006840F0010021682B
:102EE000086005E02068006840F001002168086083
:102EF000002085E7002C014000040040000800404D
:102F000010B5044620680069C0F34000D8B12068BD
:102F1000C068C0F34000B0B16FF0020021680861E2
:102F2000012020772068806900F0030018B1204656
:102F3000FFF79AFE05E0204600F0F2F8204600F088
:102F4000A2F90020207720680069C0F38000D8B182
:102F50002068C068C0F38000B0B16FF00400216841
:102F60000861022020772068806900F4407018B161
:102F70002046FFF779FE05E0204600F0D1F8204614
:102F800000F081F90020207720680069C0F3C000BC
:102F9000D8B12068C068C0F3C000B0B16FF00800BD
:102FA00021680861042020772068C06900F00300D0
:102FB00018B12046FFF758FE05E0204600F0B0F8B3
:102FC000204600F060F90020207720680069C0F3F7
:102FD0000010D8B12068C068C0F30010B0B16FF025
:102FE000100021680861082020772068C06900F47B
:102FF000407018B12046FFF737FE05E0204600F08C
:103000008FF8204600F03FF9002020772068006903
:1030100000F0010058B12068C06800F0010030B134
:103020006FF0010021680861204600F097F92068E0
:103030000069C0F3C01058B12068C068C0F3C01068
:1030400030B16FF08000216808612046FFF780FCF6
:1030500020680069C0F3801058B12068C068C0F3D0
:10306000801030B16FF0400021680861204600F008
:1030700081F920680069C0F3401058B12068C06829
:10308000C0F3401030B16FF0200021680861204685
:10309000FFF75FFC10BD000010B586B004460020AD
:1030A00002900390049005901949206888422CD121
:1030B00000BF1848806940F004001649886108463E
:1030C000806900F00400019000BF00BF00BF084607
:1030D000806940F0080088610846806900F00800B7
:1030E000019000BF00BFC020029002200390059015
:1030F00002A90948FDF748FF03200290022003902F
:10310000059002A90548FDF73FFF06B010BD00007D
:10311000000400400010024000080140000C014083
:10312000704770B504460D46164600BF94F83C0043
:10313000012801D1022070BD012084F83C0000BFAD
:1031400036B1042E1BD0082E31D00C2E5ED145E0B6
:103150002946206801F094FC2068806940F008004E
:10316000216888612068806920F0040021688861F6
:1031700020688069296908432168886147E02946F9
:10318000206801F0ADFC2068806940F4006021688F
:1031900088612068806920F48060216888612068E7
:1031A0008069296940EA0120216888612FE0294669
:1031B000206801F0C9FC2068C06940F0080021685F
:1031C000C8612068C06920F004002168C8612068D7
:1031D000C069296908432168C86118E02946206848
:1031E00001F0E6FC2068C06940F400602168C86115
:1031F0002068C06920F480602168C8612068C069C7
:10320000296940EA01202168C86100E000BF00BFD1
:1032100000BF002084F83C0000BF00BF8BE710B562
:1032200004460CB9012010BD94F83D0028B90020D7
:1032300084F83C00204600F025F8022084F83D0088
:10324000211D206801F0BCFB012084F8460000BF6E
:1032500084F83E0001213F200155402001554120C6
:10326000015500BF00BF012084F8420043200155F2
:10327000442001554520015500BF012084F83D0040
:103280000020D0E77047704770B504460D4615B969
:1032900094F83E000BE0042D02D13F20005D06E0D3
:1032A000082D02D14020005D01E04120005D012891
:1032B00001D0012070BD1DB9022084F83E000EE04F
:1032C000042D03D102213F20015508E0082D03D130
:1032D00002214020015502E0022141200155012236
:1032E0002946206801F0A6FB19492068884201D1CF
:1032F000012000E0002028B12068406C40F400402C
:10330000216848641249206888420BD02068B0F1D7
:10331000804F07D00F492068884203D00E492068AB
:1033200088420CD12068806800F00706062E0CD079
:103330002068006840F001002168086005E020680E
:10334000006840F00100216808600020B2E700003A
:10335000002C0140000400400008004010B5044665
:1033600003492068884201D1FDF7AAFF10BD000083
:1033700000080040704770472DE9F0470446206878
:1033800005682068C668206847694FF00008C14694
:1033900005F00F08B8F1000F0AD105F0200038B190
:1033A00006F0200020B1204601F090FDBDE8F08736
:1033B000B8F1000F71D007F0010018B906F4907051
:1033C00000286AD005F0010030B106F4807018B111
:1033D000E06B40F00100E06305F0040030B107F05D
:1033E000010018B1E06B40F00200E06305F002005C
:1033F00030B107F0010018B1E06B40F00400E06369
:1034000005F0080048B106F0200010B907F00100EF
:1034100018B1E06B40F00800E063E06B68B305F0C2
:10342000200028B106F0200010B1204601F04EFD2A
:1034300020684069C0F38019E06B00F0080010B903
:10344000B9F1000F22D0204601F020FD206840692C
:1034500000F04000B0B12068406920F040002168D1
:103460004861606B50B11848616B4863606BFDF751
:1034700061FC10B1606B416B88470CE02046FFF7A0
:103480007AFF08E02046FFF776FF04E02046FFF7CA
:1034900072FF0020E06389E7FFE705F0800030B1AC
:1034A00006F0800018B1204601F0DEFD7EE705F051
:1034B000400030B106F0400018B1204601F0F6FCA3
:1034C00074E700BF72E70000794E000810B50446AB
:1034D0000CB9012010BDA06900B100E000BF94F854
:1034E000390028B9002084F83800204600F028F878
:1034F000242084F839002068C06820F40050216836
:10350000C860204601F032FD2068006920F4904038
:10351000216808612068406920F02A00216848611C
:103520002068C06840F400502168C8600020E06353
:10353000202084F8390084F83A000020CAE700000F
:1035400010B586B0044600200290039004900590C8
:103550001D492068884235D100BF1C48C06940F42D
:1035600000301A49C8610846C06900F40030019073
:1035700000BF00BF00BF0846806940F004008861BA
:103580000846806900F00400019000BF00BF0420DD
:103590000290022003900320059002A90C48FDF739
:1035A000F3FC0820029000200390049002A9084830
:1035B000FDF7EAFC002211462620FDF71FFF26201A
:1035C000FDF70CFF06B010BD0044004000100240A3
:1035D0000008014070472DE9F84F04460E46174693
:1035E00099464FF0000A94F8390020285AD106B1C4
:1035F00017B90120BDE8F88F00BF94F83800012802
:1036000001D10220F6E7012084F8380000BF002035
:10361000E063212084F83900FDF74CFE8246A78440
:10362000E784A068B0F5805F04D1206910B9002557
:10363000B04602E035464FF0000800BF002084F895
:10364000380000BF1BE05346002280212046CDF801
:10365000009001F039FD08B10320CBE745B9B8F877
:103660000000C0F308002168486008F1020803E088
:103670002878216848606D1CE08C401EE084E08C56
:103680000028E0D15346002240212046CDF800908A
:1036900001F01AFD08B10320ACE7202084F83900BE
:1036A0000020A7E70220A5E7704700BFFEE702461B
:1036B0000B0A13705170704730B50B46002100BFE4
:1036C00016E00A24B4EB107F05D9302404EB107403
:1036D00003F8114005E0412404EB10740A3C03F8A0
:1036E0001140000100254C00641C1D554C1CE1B22A
:1036F0009142E6DB30BD000010B500F0D1FF3A2169
:103700000B48FDF72FF948B9382209490948FCF759
:1037100067FD0849488804F02FF807E0FDF7F2F943
:10372000FF20044981F83400FDF77EF910BD000048
:10373000F80500204803002010B5124A0021124865
:1037400004F094F911490860114A0021114804F06D
:103750008DF911490860114A0021114804F086F9D9
:1037600010490860104A0021104804F07FF9104900
:103770000860104A0021104804F078F90F490860E9
:1037800010BD0000409900087147000800000020AB
:103790006499000883470008040000208899000805
:1037A0009147000808000020AC9900089F470008D6
:1037B0000C000020D0990008AD4700081000002040
:1037C00000B585B00020019002900390049000BFE6
:1037D0003548806940F010003349886108468069A7
:1037E00000F01000009000BF00BF00BF08468069D5
:1037F00040F0200088610846806900F020000090B9
:1038000000BF00BF00BF0846806940F00400886127
:103810000846806900F00400009000BF00BF00BFB0
:103820000846806940F0080088610846806900F019
:103830000800009000BF00BF00224FF400511B4859
:10384000FDF732FD012210211948FDF72DFD01225F
:1038500011031848FDF728FD4FF400500190012096
:103860000290002003900220049001A90F48FDF768
:103870008BFB102001900120029000200390032078
:10388000049001A90A48FDF77FFB4FF48050019096
:1038900001200290002003900320049001A9054814
:1038A000FDF772FB05B000BD0010024000100140A2
:1038B00000080140000C014000B58BB000200790CB
:1038C000089009900A90059006900190029003904C
:1038D00004904FF080402349086023204860002175
:1038E000204881604FF6FF71C16000210161816154
:1038F000FFF772F808B1FDF743F94FF480500790D5
:1039000007A91848FFF72CF908B1FDF739F9154850
:10391000FFF715FA08B1FDF733F90020059006907E
:1039200005A91048FFF716F808B1FDF729F900209E
:10393000019001200290002003900A2004900022B0
:1039400001A90848FFF791F908B1FDF719F9042218
:1039500001A90448FFF789F908B1FDF711F90BB087
:1039600000BD00003002002000B58DB0002009909D
:103970000A900B900C90079008901C216846FCF769
:1039800048FC2C482C4908602320486000212A4824
:10399000816044F61F61C160002101618161FFF710
:1039A0001BF808B1FDF7ECF84FF48050099009A915
:1039B0002148FFF7D5F808B1FDF7E2F81E48FFF7F8
:1039C0002EFC08B1FDF7DCF800200790089007A94D
:1039D0001948FEF7BFFF08B1FDF7D2F8602000904C
:1039E0000020019002900490002269461248FFF7DF
:1039F00098FB08B1FDF7C4F8042269460E48FFF7AA
:103A000090FB08B1FDF7BCF8082269460A48FFF7A9
:103A100088FB08B1FDF7B4F80C2269460648FFF7A9
:103A200080FB08B1FDF7ACF80348FFF735FB0DB09C
:103A300000BD0000000400407802002010B50B48D3
:103A40000B4908604FF4E13048600021084881606C
:103A5000C16001610C21416100218161C161FFF7F9
:103A600035FD08B1FDF78CF810BD000000440040A2
:103A7000C002002010B500220D490E4801F0D7FF0A
:103A800008B1FDF77DF80C490A4802F069FA08B15F
:103A9000FDF776F80949074801F087FC08B1FDF702
:103AA0006FF8044802F026FB08B1FDF769F810BD75
:103AB000BC000020542300202C0100200C01002019
:103AC00070B504460D46074E08E0314620B200F0BE
:103AD00017F9601C84B2B61C681E85B2002DF4DC98
:103AE00070BD0000370500202DE9F04704460D4663
:103AF0002E460027262C74D2DFE804F0F113F11AC9
:103B0000F121303F5265F16CF1747B828990F1971D
:103B1000F19EA5ACB3BAC1C7F1CEF1D5F1DCF1E3AA
:103B2000F1EA714801683046FDF7DEF80127D7E079
:103B30006E4801683046FDF7D7F80127D0E06A49A2
:103B400088686B49FCF7C8FB8146FCF75CFD0FFAFF
:103B500080F841463046FFF7AAFDC1E06349886816
:103B60006349FCF7B9FB8146FCF74DFD0FFA80F87D
:103B700041463046FFF79BFDB2E05B49C8685D49AE
:103B8000FCF7AAFB82465C49FCF74EFB8146FCF73A
:103B90003AFD0FFA80F841463046FFF788FD9FE076
:103BA0005249C8685349FCF797FB82465249FCF7D3
:103BB0003BFB8146FCF727FD0FFA80F84146304673
:103BC000FFF775FD8CE04D4841683046FDF78CF8F5
:103BD000012785E0494881683046FDF785F80127CF
:103BE0007EE07CE04548808901B23046FFF75FFD0A
:103BF00076E04248C08901B23046FFF758FD6FE0D9
:103C00003E48008A01B23046FFF751FD68E03B486C
:103C1000408A01B23046FFF74AFD61E03748C1698A
:103C20003046FDF761F801275AE03448016A304612
:103C3000FDF75AF8012753E03048808C01B2304636
:103C4000FFF735FD4CE02D48C08C01B23046FFF740
:103C50002EFD45E02948008D01B23046FFF727FDD3
:103C60003EE02648408D01B23046FFF720FD37E0A8
:103C70002248408801B23046FFF719FD30E01F4866
:103C800001783046FFF713FD2AE01C4841693046B1
:103C9000FDF72AF8012723E01848C16A3046FDF7EE
:103CA00023F801271CE0154881693046FDF71CF810
:103CB000012715E01148016B3046FDF715F8012783
:103CC0000EE0094841683046FDF70EF8012707E08D
:103CD000064841683046FDF707F8012700E000BFBD
:103CE00000BF3846BDE8F087800300209003002025
:103CF00000401C4600007A4600007A454803002038
:103D00002DE9F04104460D462E46152C74D00DDCED
:103D1000142C72D2DFE804F07125713A714F5051C2
:103D20005253715C7165727E8D9871A11D2C70D09B
:103D300008DCA4F116000628EBD2DFE800F0A2AD03
:103D4000B8C3CCD5252C70D006DC1F2C6ED0212C0E
:103D50006DD0232C51D1EBE0F22C69D0F32CF9D1AA
:103D6000F2E03046FCF71CFE80467E480168404683
:103D7000FCF7E4FA07467C4881683846FCF7ACFA61
:103D800079498860FF2081F83400E8E03046FCF78C
:103D900007FE8046754801684046FCF7CFFA0746A3
:103DA0007148016A3846FCF797FA6F490862FF20AC
:103DB00081F83400D3E0D2E0D1E0D0E0CFE030466B
:103DC000FCF7EEFD68494860FF2081F83400C6E04A
:103DD0003046FCF7E5FD64498860FF2081F8340037
:103DE000BDE03046FCF7EAFD81B25F488181FF20EB
:103DF0005D4981F83400B2E038E0AFE03046FCF7CE
:103E0000DDFD81B25848C181FF20574981F8340057
:103E1000A5E072E03046FCF7D1FD81B25248018244
:103E2000FF20514981F8340099E082E06EE076E0AD
:103E300080E03046FCF7C2FD81B24B484182FF2052
:103E4000494981F834008AE03046FCF7A9FD46492B
:103E5000C861FF2081F8340081E03046FCF7A0FD06
:103E600041490862FF2081F8340078E03046FCF7D1
:103E7000A5FD81B23C488184FF203B4981F8340094
:103E80006DE03046FCF79AFD81B23748C184FF20CF
:103E9000354981F8340062E03046FCF78FFD81B28D
:103EA00031480185FF20304981F8340057E0304621
:103EB000FCF784FD81B22C484185FF202A4981F816
:103EC00034004CE03046FCF779FD27494880FF205C
:103ED00081F8340043E03046FCF770FD2249087059
:103EE000FF2081F834003AE03046FCF759FD1E49C6
:103EF0004861FF2081F8340031E03046FCF750FD86
:103F00001949C862FF2081F8340028E03046FCF7E8
:103F100047FD15498861FF2081F834001FE03046D5
:103F2000FCF73EFD10490863FF2081F8340016E0DD
:103F300015E014E00E490888FCF760FB0A49486068
:103F4000FF2081F834000AE009494888FCF756FB55
:103F50000549C861FF2081F8340000E000BF00BFC0
:103F6000BDE8F0818003002048030020900300207A
:103F70001400002000BFFEE710B50B4890F90000C8
:103F80000A4991F90010884208D10848007828B100
:103F900000200549087000F00BF804E0034890F990
:103FA00000000149087010BD200000201E00002004
:103FB00070B5464890F9000045490978884256D1C5
:103FC000444890F9000081B24048FCF7CBFC00283F
:103FD0004DD13E48801CFCF7F1FC04463B4890F96B
:103FE0000100032806D0042805D0062826D0102872
:103FF0003AD12CE000BF3548001DFCF7DFFC054638
:104000006019282819DA344E680040B2F11E887011
:104010000EE03146601C00B2FFF766FD18B1A01C2F
:1040200004B2361D02E0601C04B2B61C681E05B264
:10403000002DEEDC00F04CFB00BF16E02349091D0B
:10404000601C00B2FFF75CFE03F028FC0DE01F4887
:10405000001DFCF7B3FC0546A9B2621C90B2FFF745
:104060002FFD03F01BFC00E000BF00BF29E0174854
:10407000007830BB15484078032803D013484078B7
:1040800004281ED11148801CFCF798FC652818D123
:104090000E48001DFCF792FC012812D10D4890F942
:1040A000000081B20948FCF75DFC50B90A4C0220BF
:1040B000E11E887021466520FFF716FD00F008FB21
:1040C00000BF00200349087070BD000030050020CB
:1040D000480300201E0000206B04002070470000F1
:1040E00070B56949CA898989501AFCF77EFA054674
:1040F00065498889FCF782FA0646644801683046BB
:10410000FCF7E7F804462946FCF718F95F49C86050
:104110005D494A8A098A501AFCF767FA05465A49E6
:10412000088AFCF76BFA0646584801683046FCF7E7
:10413000D0F804462946FCF701F9544988605249F1
:10414000CA8C898C501AFCF750FA05464E49888C67
:10415000FCF754FA06464E4801683046FCF7B9F8B9
:1041600004462946FCF7EAF84949C86046494A8DA1
:10417000098D501AFCF739FA05464349088DFCF7BA
:104180003DFA0646424801683046FCF7A2F804466C
:104190002946FCF7D3F83E4988603C4988680021ED
:1041A000FCF792FA01D2002001E0384880683749D4
:1041B000886088684FF07E51FCF790FA02D24FF089
:1041C0007E5001E03148806830498860C86800212D
:1041D000FCF77AFA01D2002001E02C48C0682B4994
:1041E000C860C8684FF07E51FCF778FA02D24FF0F1
:1041F0007E5001E02548C0682449C8602449886889
:104200000021FCF761FA01D2002001E0204880681B
:104210001F49886088684FF07E51FCF75FFA02D230
:104220004FF07E5001E01A48806819498860C868DC
:104230000021FCF749FA01D2002001E01448C068CF
:104240001349C860C8684FF07E51FCF747FA02D2A4
:104250004FF07E5001E00E48C0680D49C8600B4821
:104260008168002003F0AEFA0848C1680020FCF71E
:104270000DFC07488168012003F0A4FA0448C168D6
:104280000120FCF703FC70BD4803002080030020E0
:10429000900300202DE9F0470546E2E12868B0F8D8
:1042A00044A00AF00F06002E7ED10AF01000B0BB29
:1042B00000BF2968098848F60F7201EA020040F43D
:1042C00000412A68118000BF05F128042868B0F871
:1042D0005010207801EBC000801C296801F5806136
:1042E00031F81000C0F30900E061E1696069084439
:1042F000606100212846FDF7F6F895F824000028B3
:10430000CBD0A0690028C8D195F8240040F08000E7
:104310002968A1F84C00002085F82400A1E1FFE7FE
:1043200005F5B4742868B0F8008008F4006030B374
:104330002868B0F85010207801EBC000801D296873
:1043400001F5806131F81000C0F30900E061A18B34
:104350008BB2E28805F52C71286803F0BBF900BF29
:104360002968098840F68F7201EA020040F0800156
:104370002A68118000BF2846FDF78FFE71E108F41E
:104380000040002889D000BF2968098840F68F7254
:1043900001EA020040F080012A68118000BF28680D
:1043A000B0F85010207800E069E001EBC000801DFB
:1043B000296801F5806131F81000C0F30900E0615F
:1043C000E06990B1606980B1B4F81CC01FFA8CF349
:1043D000E2886169286803F07DF9E1696069084451
:1043E000606100212846FDF78EF800BF2A68296821
:1043F000B1F850100A4402F20C41084600BF23698C
:1044000053B9038848F2FF3C03EA0C030380038896
:1044100043F4004303801EE023693E2B0DD800BF08
:1044200023695908237C03F0010303B1491C4FF6AB
:10443000FF7303EA812303800DE000BF236959095C
:10444000237C03F01F0303B9491E4FF4004343EAE2
:104450008123038000BF00BF00BF00BF2968098817
:104460004BF68F7201EA020080F4805080F4005015
:1044700040F4004141F080012A681180F1E07100B0
:10448000286830F8118008F4004000287ED000BF72
:104490007200296831F8121040F68F7201EA0200AA
:1044A00040F0800173002A6822F8131000BF06EB69
:1044B000860105F5B47000EBC104207BB0B9286813
:1044C000B0F85010207801EBC000801D296801F57C
:1044D000806131F81000C0F30907002F5BD0E2883B
:1044E00061693B46286803F0F5F854E0E07802285B
:1044F00006D1424621462846FDF788F807464AE09D
:1045000000BF00BF22785200296831F8121048F627
:104510008F7201EA020040F4004141F0C0012378AB
:104520005B002A6822F8131000BF00BF2178490001
:10453000286830F8110000F48040A8B12868B0F86D
:104540005010207801EBC000801C296801F58061C3
:1045500031F81000C0F30907EFB1228961693B46C9
:10456000286803F0B7F816E02868B0F850102078F3
:1045700001EBC000801D296801F5806131F8100051
:10458000C0F309073FB16289616900E017E03B466B
:10459000286803F09FF8E0693844E06160693844B6
:1045A0006061A06910B12069B84204D92178284619
:1045B000FCF7A9FF03E02146286802F076FB08F02B
:1045C0008000A0B306EB860105F1280000EBC104D2
:1045D00000BF7200296831F8121048F60F7201EA24
:1045E000020040F4004173002A6822F8131000BF53
:1045F000E078022805D1E07802282DD108F48070F7
:1046000050BB2868B0F85010207801EBC000801C27
:10461000296801F5806131F81000C0F30909A0692B
:10462000484505D9A069A0EB0900A06102E018E0A7
:104630000020A061A06920B921782846FCF753FF2B
:104640000FE0606948446061E0694844E0612146E8
:10465000286802F02AFB04E0424621462846FDF77E
:1046600081F82868B0F8440000F4004000287FF486
:1046700015AEBDE8F087000008B508490968C9080B
:104680004FF47A72B1FBF2F14143009100BF00BFD9
:1046900000994A1E00920029F9D108BD300000207F
:1046A00030B5094900200BE00A881312012404EBFD
:1046B0004004064D2B552C4604F81020891C401C44
:1046C0003228F1DB30BD000000E00008F8050020D2
:1046D00010B511480078114908700F4840784870AB
:1046E000084690F90200C01C81B20C48FCF73AF968
:1046F00004B20A4991F90210C91C084A88182146D7
:10470000FEF7D5FF05488078401D40B20449087087
:1047100000F090FB10BD0000300500206804002070
:104720001C0000200E48006800F02000B0B10020FE
:104730000C4908700A48001D006840B20A490B4A3B
:1047400092F900208854094890F90000C72805D242
:1047500006480078401C40B20449087070470000C9
:10476000004400401F000020300500201E000020F3
:10477000FFF780F900BF00F0F3FA012003F018F909
:10478000F9E700BF00F010FB012003F011F9F9E791
:1047900000BF00F031FB012003F00AF9F9E700BF88
:1047A00000F030FB012003F003F9F9E700BF00F04F
:1047B00037FB012003F0FCF8F9E7000010B500BF5B
:1047C000502080F31188BFF34F8FBFF36F8F00BF6E
:1047D00004F076FE18B14FF080500449086000BF25
:1047E000002080F3118800BF10BD000004ED00E040
:1047F00000B593B0282109A8FBF70BFD142104A8EC
:10480000FBF707FD0020009001900290039001202B
:10481000099000040A9000200B9001200D900220C6
:104820001090C10311914FF4E011129109A8FDF706
:104830005DFE08B1FCF7A4F90F200490022005905A
:10484000002006904FF4806007900020089002211D
:1048500004A8FDF7F3FC08B1FCF792F910200090D2
:10486000002003906846FDF751FC08B1FCF788F979
:1048700013B000BD704700004FF08040006900F0A9
:10488000020000283AD06FF00200810708616FF43F
:10489000007008613B48006800F0010048B108461C
:1048A000006A40F0020008620846406B3649088002
:1048B00024E04FF08040006A20F002004FF0804179
:1048C00008620846406B31490880084600882E4936
:1048D0000988884207DB2D4800882B490988401A3F
:1048E0002B4908800AE0284800884FF6FF71081A13
:1048F000264909880844401C254908804FF080401B
:10490000006900F0040078B36FF004004FF08041BC
:1049100008616FF4806008611A48006800F00200C6
:1049200048B10846006A40F0200008620846806BE3
:104930001849088024E04FF08040006A20F02000F1
:104940004FF0804108620846806B13490880084692
:10495000008810490988884207DB0F4800880D4904
:104960000988401A0A4948800AE00A4800884FF638
:10497000FF71081A084909880844401C0449488006
:104980007047000008080140340000203600002075
:1049900014000020380000203A00002010B5FFF776
:1049A0006BFF0248FEF7ACFA10BD00003002002099
:1049B00010B50248FEF7A4FA10BD00000003002065
:1049C00010B50268184B984208D0B0F1804F05D05E
:1049D000164B984202D0164B984203D122F0700237
:1049E0004B681A43104B984208D0B0F1804F05D065
:1049F0000E4B984202D00E4B984203D122F44072E3
:104A0000CB681A4322F080034C6943EA0402026037
:104A10008B68C3620B688362034B984201D10B69B8
:104A200003630123436110BD002C014000040040DA
:104A30000008004030B501F01F05012404FA05F319
:104A4000046A9C430462046A01F01F0502FA05F53A
:104A50002C43046230BD30B50C46816821F47F419F
:104A600042EA032525432943816030BD0A46816817
:104A700021F0700142F00703194381607047000084
:104A800030B5056A25F001050562026A436884694C
:104A900024F0700424F003040D682C4322F0020279
:104AA0008D682A430D4DA84206D100BF22F00802AE
:104AB000CD682A4322F00402084DA84207D123F40E
:104AC000807323F400734D692B438D692B4343603E
:104AD00084614D684563026230BD0000002C0140D6
:104AE00030B5056A25F010050562026A43688469DD
:104AF00024F4E04424F440740D6844EA052422F0D0
:104B000020028D6842EA05120E4DA84207D100BF6F
:104B100022F08002CD6842EA051222F04002094DDF
:104B2000A84209D123F4806323F400634D6943EA6A
:104B300085038D6943EA8503436084614D6885631D
:104B4000026230BD002C014030B5056A25F4807545
:104B50000562026A4368C46924F0700424F0030407
:104B60000D682C4322F400728D6842EA05220F4D35
:104B7000A84207D100BF22F40062CD6842EA0522B4
:104B800022F48062094DA84209D123F4805323F412
:104B900000534D6943EA05138D6943EA05134360E9
:104BA000C4614D68C563026230BD0000002C014045
:104BB00030B5056A25F480550562036A4468C26908
:104BC00022F4E04222F440720D6842EA052223F406
:104BD00000538D6843EA0533064DA84204D124F4FE
:104BE00080444D6944EA85144460C2614D6805649F
:104BF000036230BD002C014030B50B461446026AFA
:104C0000056A25F001050562816921F0F00141EA9C
:104C1000041122F00A021A438161026230BD0000D1
:104C200070B50C461546066A26F0010606628169D3
:104C3000026A124EB04208D0B0F1804F05D0104E3B
:104C4000B04202D00F4EB04201D1012600E0002652
:104C50001EB121F00301294301E041F0010121F0DF
:104C6000F001F02606EA0316314322F00A0204F0AE
:104C70000A0632438161026270BD0000002C0140CF
:104C8000000400400008004030B50B461446056A99
:104C900025F0100505628169026A21F4704141EA3C
:104CA000043122F0A00242EA03128161026230BDA7
:104CB00070B50C461546066A26F010060662816934
:104CC000026A21F4407141EA052121F470414FF458
:104CD000704606EA0336314322F0A002A02606EA17
:104CE000041632438161026270BD70B50C461546F0
:104CF000066A26F480760662C169026A21F0030121
:104D0000294321F0F001F02606EA0316314322F48C
:104D100000724FF4007606EA04263243C161026253
:104D200070BD70B50C461546066A26F480560662BC
:104D3000C169026A21F4407141EA052121F4704100
:104D40004FF4704606EA0336314322F400524FF422
:104D5000005606EA04363243C161026270BD0000AB
:104D600000BF00224FF480510D48FCF79DFA00224D
:104D70004FF400510B48FCF797FA4FF4FA7002F029
:104D800017FE012211030648FCF78EFA0122510397
:104D90000448FCF789FA4FF4FA7002F009FEE0E7E4
:104DA000000C014000100140002011490860114929
:104DB00008600F4948600F4948600021084602F02A
:104DC00001FD0021012002F0FDFC00210846FBF757
:104DD0005DFE00210120FBF759FE00BFFBF7F6FD49
:104DE00003F048FCFFF77CF9142002F0E1FDF5E741
:104DF000800300209003002000BF142002F0D8FDA3
:104E0000FBE70000002210210448FCF74DFA00BF28
:104E1000FFF7B2F8052002F0CBFDF9E700080140EA
:104E2000FEF76AFC00BFFBF7FFFD642002F0C0FD47
:104E3000F9E7000010B5012210210B48FCF734FA05
:104E40000A2002F0B5FD094890F9000082B24FF443
:104E50007A7307490748FEF7BEFB0022102102487B
:104E6000FCF722FA10BD0000000801401C000020E1
:104E700068040020C002002070B505466C6A00205E
:104E8000E085E0842046FEF776FA70BD0168C968C7
:104E900021F490710268D1600168496921F0010133
:104EA00002685161202180F83A10704710B504461D
:104EB0002068C06820F040002168C860202084F885
:104EC00039002046FEF7F0FB002010BD70B5044607
:104ED00094F83A00222847D1A068B0F5805F0CD141
:104EE000206950B90025A66A20684068C0F3080010
:104EF0003080A06A801CA06215E0A56A0026A06828
:104F0000B0F5805F03D0A06828B9206918B920687F
:104F10004068287004E02068406800F07F00287036
:104F2000A06A401CA062E08D401E80B2E085C8B936
:104F30002068C06820F020002168C8602068C06830
:104F400020F480702168C8602068406920F001006A
:104F500021684861202084F83A002046FEF73AFB99
:104F6000002070BD0020FCE70220FAE770B504467F
:104F70002168096921F44051E268114322681161F6
:104F80002269A1681143626941EA02052168C96882
:104F900041F20C62914329432268D160216849693A
:104FA00021F44071A2691143226851612D4A2168A0
:104FB000914202D1FDF740FA01E0FDF72DFA00EB36
:104FC000C00101EB001162689200B1FBF2F100EB4D
:104FD000C00202EB001263689B00B2FBF3F2642391
:104FE000B2FBF3F202EBC20303EB0212A1EB82016C
:104FF000322202EB01116422B1FBF2F101F0F00167
:1050000000EBC00202EB001263689B00B2FBF3F2FC
:105010006423B2FBF3F201EB021200EBC00101EBDF
:10502000001163689B00B1FBF3F100EBC00303EBDD
:1050300000136668B600B3FBF6F36426B3FBF6F321
:1050400003EBC30606EB0313A1EB8301322303EB4F
:1050500001116423B1FBF3F101F00F011144226847
:10506000916070BD00380140014691F83900212857
:1050700028D18868B0F5805F0BD1086948B90A6A01
:105080001088C0F308000B685860086A801C08622A
:1050900005E00B6A581C086218780B685860C88CC9
:1050A000401E80B2C88458B90868C06820F08000EB
:1050B0000B68D8600868C06840F040000B68D86092
:1050C000002070470220FCE72DE9F04104460D4620
:1050D00017469846069E21E0701CF8B12EB1FCF7E9
:1050E000E9F8A0EB0800B04218D92068C06820F4A5
:1050F000D0702168C8602068406920F001002168F4
:105100004861202084F8390084F83A0000BF00206C
:1051100084F8380000BF0320BDE8F08120680068F3
:105120002840A84201D1012000E00020B842D3D09D
:105130000020F1E710B5FFF7F5FA0248FEF71CF979
:1051400010BD0000C00200202DE9F04104460D46CC
:10515000D4F8B862D4F8C072D4F8B80278B305EBCA
:10516000850104F1140000EB8100806808B305EBB1
:10517000850104F1140000EB810005EB85028168D4
:1051800007F1280000EBC2000069B1FBF0F200FB60
:10519000121070B9002105EB850204F1140000EB38
:1051A0008200816000231A462946204600F0ACFEAA
:1051B00002E00020C6F814020020BDE8F081FFE7FD
:1051C0000220FAE770B504460E46D4F8B8523146CC
:1051D000204600F03EFDC5F80C02D4F8B80248B1F4
:1051E000D5F80402D4F8BC12CA6805F503719047DB
:1051F000002070BD0220FCE770B504460E46002575
:105200008121204600F03FFC0021E162012120467F
:1052100000F039FC0021C4F86C118221204600F016
:1052200032FC00212164D4F8B80250B1D4F8BC1289
:1052300048688047D4F8B80201F00FF90020C4F89C
:10524000B802284670BD70B50546D5F8B842D5F805
:10525000BC0278B194F80002FF280BD094F8012228
:1052600094F80002D5F8BC128B6821469847FF20BD
:1052700084F80002002070BD01460A200880014821
:1052800070470000200100200146432008800148AB
:1052900070470000A8010020014643200880014813
:1052A0007047000064010020014643200880014847
:1052B00070470000EC0100202DE9F04104460F4644
:1052C0000026207C88B94FF40073022281212046F9
:1052D00000F026FD0121E1624B020222204600F08F
:1052E0001FFD0121C4F86C110FE04023022281212F
:1052F000204600F015FD0121E162402302222046F4
:1053000000F00EFD0121C4F86C1108230322822154
:10531000204600F005FD012121644FF4077001F0E3
:105320009DF8C4F8B802D4F8B80208B901261CE008
:10533000D4F8B852D4F8BC12086880470020C5F8E9
:105340001402C5F81802207C40B94FF40073012103
:105350002046D5F8042200F0FBFC06E040230121A2
:105360002046D5F8042200F0F3FC3046BDE8F08179
:1053700070B50446D4F8B852D4F8B80298B1207C7D
:1053800040B94FF4007301212046D5F8042200F003
:10539000DFFC06E0402301212046D5F8042200F07E
:1053A000D7FC002070BD0220FCE70246022011B1AC
:1053B000C2F8BC12002070470246D2F8B832C3F8D7
:1053C00004120020704710B50346D3F8B842C4F861
:1053D0000812C4F81022002010BD2DE9FC4105463A
:1053E0000C46D5F8B8620020019000900027207884
:1053F00000F0600040B320285FD1E088E0B1207861
:1054000000F0800060B1E2886078D5F8BC128B684B
:1054100031469847E2883146284600F0C7F812E046
:10542000607886F80002A07986F80102E2883146A9
:10543000284600F09AF806E06078D5F8BC12002201
:105440008B68214698473EE0607820B10A2812D048
:105450000B282AD11FE095F89C02032805D10222CF
:105460006946284600F0A2F804E02146284600F0EC
:1054700070F802271FE095F89C02032805D101224D
:1054800001A9284600F092F804E02146284600F0E1
:1054900060F802270FE095F89C02032804D021460B
:1054A000284600F056F8022705E02146284600F07D
:1054B00050F8022700BF00BF05E02146284600F053
:1054C00048F8022700BF00BF3846BDE8FC8170B530
:1054D00004460D46D4F8B402294642682046904757
:1054E000002070BD70B504460D4694F89C0201285A
:1054F00004D0022803D003280CD101E000BF00BF74
:105500006888012805D10020C4F8A402204600F0D4
:105510005EF804E02946204600F01BF800BF00BFFB
:1055200070BD70B506460C4615462B462246002136
:10553000304600F00DFC002070BD70B506460C46EC
:1055400015462B4622460021304600F0DDFC0020A7
:1055500070BD70B504460D468021204600F0A8FCC1
:105560000021204600F0A4FC70BD70B504460E4634
:1055700015460320C4F894024FF4AE700551001D87
:1055800005512B4632460021204600F0E1FB002069
:1055900070BD10B504460520C4F8940200231A46D5
:1055A0001946204600F0D4FB002010BD70B504461B
:1055B0000E4615460220C4F89402E56125622B468A
:1055C00032460021204600F09FFC002070BD10B53F
:1055D00004460420C4F8940200231A4619462046C3
:1055E00000F092FC002010BD70B505460C462DB9A8
:1055F0002246064906A000F0DBF904E022460349F2
:1056000003A000F0D5F9014870BD00001826002065
:1056100043444320436F6E666967000002461220D0
:105620000880014870470000D800002070B505468A
:105630000C462DB92246064906A000F0B9F904E04F
:105640002246034903A000F0B3F9014870BD0000F1
:105650001826002043444320496E746572666163D6
:1056600065000000024604200880014870470000E1
:10567000EC00002070B505460C462246024903A006
:1056800000F096F9004870BD1826002053544D696B
:1056900063726F656C656374726F6E69637300002B
:1056A00070B505460C462DB92246064906A000F005
:1056B0007FF904E02246034903A000F079F901488C
:1056C00070BD00001826002053544D333220566917
:1056D000727475616C20436F6D506F7274000000BE
:1056E00070B505460C461A202080FBF709FB0148DF
:1056F00070BD0000F000002070B504460D46E8883B
:10570000012804D029462046FFF723FF1EE094F825
:105710009C02012804D0022803D0032810D109E0FC
:1057200000BF0020A060012204F108012046FFF71D
:105730003DFF0AE00122211D2046FFF737FF04E06C
:1057400029462046FFF705FF00BF00BF70BDF8B532
:1057500004460E46002000900027002570880012A5
:10576000082875D2DFE800F0C7040C20C7C7A5B52C
:10577000207CD4F8B0120A68694690470746C1E019
:10578000207C40B9D4F8B402816A6846884707464D
:105790000220787007E0D4F8B402C16A68468847EE
:1057A000074602207870ADE0B078062878D2DFE8AE
:1057B00000F00316293C5063D4F8B002406838B1B9
:1057C000207CD4F8B0124A6869469047074605E045
:1057D00031462046FFF7BDFE681CC5B267E0D4F82D
:1057E000B002806838B1207CD4F8B0128A6869466B
:1057F0009047074605E031462046FFF7AAFE681CA1
:10580000C5B254E0D4F8B002C06838B1207CD4F8F6
:10581000B012CA6869469047074605E031462046FF
:10582000FFF797FE681CC5B241E0D4F8B0020069EA
:1058300038B1207CD4F8B0120A696946904707460F
:1058400005E031462046FFF784FE681CC5B22EE015
:1058500051E0D4F8B002406938B1207CD4F8B012DD
:105860004A6969469047074605E031462046FFF7FA
:1058700070FE681CC5B21AE0D4F8B002806940B16D
:10588000207CD4F8B0128A6969469047074606E042
:1058900006E031462046FFF75CFE681CC5B206E014
:1058A00031462046FFF755FE681CC5B200BF00BF59
:1058B00028E0207C30B9D4F8B402416B68468847B0
:1058C000074605E031462046FFF743FE681CC5B297
:1058D00018E0207C40B9D4F8B402016B68468847D0
:1058E00007460720787005E031462046FFF731FE75
:1058F000681CC5B206E031462046FFF72AFE681C48
:10590000C5B200BF00BF05B1F8BDBDF8000088B149
:10591000F08878B1F088BDF80010884202DDBDF84B
:10592000000000E0F0880090BDF8002039462046D5
:10593000FFF73CFEF08810B92046FFF748FE00BF95
:10594000E2E70146002002E0421CD0B2491C0A787E
:10595000002AF9D1704770B504460D4694F89C02B0
:10596000012804D0022803D003281AD101E000BF87
:1059700000BFE888022804D029462046FFF7E9FD49
:1059800014E00120E060D4F8A40218B1E06840F00F
:105990000200E060022204F10C012046FFF706FE3F
:1059A00004E029462046FFF7D4FD00BF00BF70BDCC
:1059B0002DE9F04104460D4617460026FCB120466D
:1059C000FFF7BFFF022101EB400038803A783046F4
:1059D000711CCEB22A5403223046711CCEB22A5416
:1059E0000AE014F8012B3046711CCEB22A54002272
:1059F0003046711CCEB22A5420780028F1D1BDE87F
:105A0000F0810146002031B1012906D0022906D0DB
:105A1000032908D105E0002007E0022005E001206D
:105A200003E0022001E0022000BF00BF704770B514
:105A300004460D4616460CB9022070BDD4F8B402D7
:105A400010B10020C4F8B4020DB1C4F8B052012066
:105A500084F89C022670204600F004F90020ECE750
:105A60002DE9F04104460D46002600272946D4F8CA
:105A7000C002FBF78DFD06463046FFF7C2FF074622
:105A80003846BDE8F0812DE9F04104460D46002678
:105A900000272946D4F8C002FBF745FD06463046EC
:105AA000FFF7AFFF07463846BDE8F0812DE9F0412A
:105AB00004460E461746002E64D104F11405D4F8AE
:105AC0009402022848D1D5E90301884210D9D5E9CA
:105AD0000301401AE860A88982B239462046FFF7E0
